:1000000013C0C3C32CC02BC02AC029C028C027C01E
:1000100026C025C024C023C022C021C020C01FC0CC
:100020001EC01DC01CC01BC011241FBECFEFD2E0DC
:10003000DEBFCDBF11E0A0E0B1E0ECE9FDE002C021
:1000400005900D92AA30B107D9F722E0AAE0B1E0FD
:1000500001C01D92A137B207E1F709D49DC6D0CFE8
:10006000FC01208130E0322F22278181A901482B19
:10007000CA010895FC017083618308950895FC010D
:100080008285823049F0833061F0813069F49BB120
:1000900080E289278BB908959BB180E489278BB9C9
:1000A00008958BB180588BB908950496D9DF909349
:1000B000350280933402809108028F5F809308029A
:1000C00008950A96CDDF909332028093310208950D
:1000D0000F931F93CF93DF938C01EB0168E2CE0166
:1000E000CED5B801CE01CED562E070E0CE01E5D527
:1000F0005E9A8FE493EC0197F1F700C000005E98E0
:100100008FE493EC0197F1F700C0000048E2BE01D4
:10011000C8014AD4DF91CF911F910F910895EF92BA
:100120000F93CF93C82FE12C00E020E040E065E57D
:1001300075E489E092E0ABD569E072E08C2F90E045
:10014000C7DF10920702CF910F91EF900895BC0185
:100150008091000190910101BBDF0895209134024C
:10016000309135022115310521F0BC01C901B0DF04
:1001700008955F9AECDF0895FC0198E2A9E0B2E0EF
:1001800001900D929A95E1F781E08093160289E043
:1001900092E0E4DF0895EF920F931F93CF93DF93E4
:1001A000EC015D9A8FE493EC0197F1F700C0000039
:1001B0005D98AFE4B3EC1197F1F700C000005D9AD1
:1001C0008FE493EC0197F1F700C000005D98AFE475
:1001D000B3EC1197F1F700C0000088E2E9E0F2E02B
:1001E000DF011D928A95E9F7E12C00E020E040E074
:1001F00061E474E4CF014BD51E85CE81D0E0CC0FF5
:10020000DD1FCC0FDD1F62E070E0CE01885E9D4FE8
:1002100031DF812F58D5BC01CE01865E9D4F2ADF8C
:1002200089E092E0A9DFDF91CF911F910F91EF90CC
:100230000895EF920F931092070281E080933302AA
:10024000E12C00E020E040E065E575E589E092E022
:100250001ED562E070E083E192E00CDF89E092E07D
:100260008BDF0F91EF9008950F931F93CF93DF9340
:10027000EC018A85811128C05F98CE010496F0DEDA
:100280000EE312E0F80191838083809108028F5F72
:100290008093080281E080933302109239026E81CC
:1002A0006F5F60933D0289E092E00AD580913D0244
:1002B00090E062E070E0885E9D4FDCDEF8018081B6
:1002C0002EDF109207022FC0809139028F5F80933A
:1002D000390290910201981730F589E999E99093D4
:1002E0003F0280933E026E816F5F60933D0289E022
:1002F00092E0E6D480913D0290E062E070E0865E9C
:100300009D4FB8DE809108028F5F8093080282E0E3
:1003100090E090933202809331021092390281E092
:100320008093330286DFDF91CF911F910F91089563
:10033000EF920F93CF93DF93EC0180913E02909167
:100340003F02893929E9920719F0BE01C1DE0FC0C9
:10035000CE01089685DE0F2EF9E0EF2EF02D00E09D
:1003600020E040E0BC01CE0192D4CE0105DFDF9158
:10037000CF910F91EF900895DF92EF92FF920F933C
:100380001F93CF93DF93EC0188E2FE01A9E0B2E076
:1003900001900D928A95E1F71E85CE01049660DEEC
:1003A00020910001309101018217930719F41092F6
:1003B0003D0218C08E8180933D0290E0880F991F06
:1003C000880F991F439689976CF05F9AEE24E39407
:1003D000098128814FEF6EEC70E0CE0158D4CE0138
:1003E000CBDE41C05F98ED840C85DB84FA84CE01BE
:1003F000089636DE2D2D4F2DBC0189E092E047D4C2
:1004000080913D0290E0880F991F880F991F62E04C
:1004100070E0885E9D4F2EDE812F55D420913D02E5
:1004200030E0220F331F220F331FBC01C901865E4B
:100430009D4F20DE60913D026F5F60933D0289E039
:1004400092E03ED480913D0280930F028091310270
:1004500090913202029721F089E092E069DF03C0B7
:1004600089E092E089DEDF91CF911F910F91FF909B
:10047000EF90DF900895EF920F93029729F4809107
:1004800039028F5F80933902E0913902F0E0EE0F7C
:10049000FF1FED5FFE4F6081718189E092E0F4D330
:1004A000E12C00E020E040E062E472E489E092E0C8
:1004B000EED3E0913902F0E0EE0FFF1FED5FFE4F4B
:1004C00069E072E08081918103DE0F91EF900895E1
:1004D000CF92DF92EF92FF920F931F93CF93DF9310
:1004E0006C0182E0809307025F9AE4E6F0E080818D
:1004F000808385B5886085BD85B5856085BD16BC62
:10050000D1E0ED2E02E010E048C06EE370E080E63E
:1005100093E0FFD2A89BF9CF16BCD5BBC15009F020
:1005200040C0E0913902F0E0EE0FFF1FED5FFE4F9B
:1005300080819181A0DFFA94F11032C05D9A8FE43E
:1005400093EC0197F1F700C000005D98EFE4F3EC45
:100550003197F1F700C00000E0913902EF5FE093BE
:100560003902809102018E1780F4F60166816F5F77
:1005700060933D0289E092E0A3D3E09233021093AE
:1005800032020093310255DE08C0F0E0EE0FFF1F8B
:10059000ED5FFE4F808191816EDF6894FF24F1F85A
:1005A000CAE080910702823019F4A89BAECFB4CF85
:1005B000DF91CF911F910F91FF90EF90DF90CF903F
:1005C0000895CF93DF93EC0181E0809307021092AE
:1005D00008021092390210923302CE0166DDE091DA
:1005E0003902F0E0EE0FFF1FED5FFE4F8081918139
:1005F00042DFCE016DDFDF91CF910895EF920F932F
:10060000CF93DF93EC01E12C00E020E04091080261
:1006100064E474E489E092E03AD32496CE0120DDCC
:10062000BC0189E092E030D3CE011ADD69E072E0CE
:100630004FDDDF91CF910F91EF900895CF93DF932E
:10064000EC0108960DDD813424E49207E9F058F4BA
:100650008D3D910581F1823422E49207F1F08E3CC8
:10066000910559F525C0843424E49207C9F020F49B
:100670008234944461F021C0853525E4920751F01D
:100680008535954581F019C0CE0185DD16C0CE01B6
:1006900073DE13C0CE0195DF10C0CE01AFDF0DC0F9
:1006A000CE01E2DD0AC0CE010CDDCE0165DD05C064
:1006B000CE0162DD02C0CE01E2DCDF91CF91089570
:1006C000CF93DF9388E2E3E4F2E0DF011D928A95A5
:1006D000E9F780910A01886080930A0134D2EC0125
:1006E000CBD2AE01BC0183E492E04DD35F9A8FE49C
:1006F00093EC0197F1F700C000005F98AFE4B3EC12
:100700001197F1F700C0000080913302882369F14E
:1007100080915002813021F483E492E01FDD2DC0EE
:1007200085E492E09DDC892B29F085E492E098DC59
:10073000029721F483E492E081DF1FC085E492E018
:100740008FDC0297D1F05F9A8FE493EC0197F1F779
:1007500000C000005F98AFE4B3EC1197F1F700C060
:10076000000083E492E0E4DD08C083E492E078DCFA
:10077000029719F483E492E061DF80910A01877F98
:1007800080930A01DF91CF9108951F920F920FB6C7
:100790000F9211242F933F934F935F936F937F9307
:1007A0008F939F93AF93BF93EF93FF9380910A0131
:1007B000806180930A01D4D180910A018F7E809359
:1007C0000A01FF91EF91BF91AF919F918F917F911E
:1007D0006F915F914F913F912F910F900FBE0F90AE
:1007E0001F901895559A569A579A85B18C6E85B96F
:1007F00084B18C6E84B9249883D245D046D18EEFD3
:100800009AECAFD082E090E0B6D07894E89AE9E62E
:10081000F0E080818260808388E2E9E0F2E0DF013D
:10082000982F1D929A95E9F7E3E4F2E0DF011D921B
:100830008A95E9F71092330210920702109208028B
:1008400010923902109232021092310210923D023F
:100850005F9A8FE493EC0197F1F700C000005F9876
:10086000AFE4B3EC1197F1F700C000000895BADFD0
:1008700005C06EE370E080E693E04BD18091070203
:100880008823B9F3FDCF599887EA91E60197F1F7EC
:1008900000C00000599A83E294EF0197F1F700C07D
:1008A00000000895CF93DF93CBE0D1E0880F8E77DF
:1008B0008883198226E042E0BE01CE012ED28981D2
:1008C000DF91CF910895CF93DF93CBE0D1E09C01EE
:1008D0003695279536952795369527952068288350
:1008E0008295880F807E89831A8226E043E0BE01CC
:1008F000CE0113D28A81DF91CF910895EBE0F1E030
:10090000880F8E7781608083618326E042E0BF019B
:10091000CF0103D20895EBE0F1E09C0136952795D5
:100920003695279536952795206820838295880FE0
:10093000807E80618183628326E043E0BF01CF0136
:10094000ECD10895CF9382E0ADDFC82F81E0AADF1C
:100950002C2F30E0322F2227A901482BCA01CF913A
:100960000895CF93C82F692F82E0C8DF6C2F81E0F4
:10097000C5DFCF910895CF93C82F692F84E0BEDFE4
:100980006C2F83E0BBDFCF910895CF9384E08ADFA3
:10099000C82F83E087DF2C2F30E0322F2227A901D8
:1009A000482BCA01CF910895DF92EF92FF920F93E7
:1009B0001F93CF93DF93D82FC92F7B01D42E69E0EB
:1009C00080E090E0A8DF60918601675F6D0D81E0B7
:1009D00090E0A1DF61E682E090E09DDF68E883E0DF
:1009E00090E099DF61E084E090E095DFABDF192FC4
:1009F000682F85E090E08FDF612F86E090E08BDF4D
:100A00006D2F87E090E087DF6C2F88E090E083DF38
:100A1000BCDFC92F682F89E090E07DDF6C2F8AE072
:100A200090E079DFC0918601D09187012B96DD207F
:100A300061F08701ED0CF11CF80161918F01CE018D
:100A40006ADF21960E151F05B9F765E08BE156DFC9
:100A5000DF91CF911F910F91FF90EF90DF9008955C
:100A600010923C0266EF82E349DF0895682F70E040
:100A70006B50710962957295707F7627607F76273B
:100A8000636080E092E047DF089510926B0267E0B8
:100A90008AE234DF68E988E131DF65E98EE22EDF42
:100AA00063E080E092E037DF61E081E092E033DFF5
:100AB00060E882E092E02FDF60E986E092E02BDFE1
:100AC00060E887E092E027DF60E188E092E023DFE2
:100AD00061E280E292E01FDF60E88AE30FDF60E618
:100AE0008FE30CDF60E48EE309DFBADF84E1BEDF71
:100AF00064E086E303DF60E086E300DF10926D02CE
:100B000010926C0289EF90E00197F1F700C00000AD
:100B10000895CF93DF9320913C02211111C0EB0186
:100B2000FC0120916D02222319F010926D020995AB
:100B300080916C02882321F010926C02FE010995CD
:100B4000DF91CF91089580910F0190E00B97089568
:100B500064E089E3D3DE089560E089E3CFDE0895A1
:100B6000AF92BF92CF92DF92EF92FF920F931F93BB
:100B7000CF93DF9381E080933C0281E393DEB82E34
:100B800083FF4FC080916D028F5F80936D02E0DF25
:100B900080E093E098DEA82E80916B02EA2CF12C85
:100BA0001E141F049CF4C7019C0128573E4F690185
:100BB000C8E8D1E001E013E008581140C8018C0FEB
:100BC0009D1F81DE8993CC15DD05C1F780910F0152
:100BD00090E00B9718161906ACF4C0E1D1E0C12CD7
:100BE000D12C0FE011E03FEFC31AD30AC601875F93
:100BF0009C4F69DE8993F801808190E00B97C816BD
:100C0000D9068CF3A0920F01C7018F5F9C4F5BDE6A
:100C100080938401C7018E5F9C4F55DE80938501D0
:100C20009BDFB0FE1CC080916C028F5F80936C02D2
:100C300084E238DE80933B02982F9F7321E009F015
:100C400020E090910E0120FB90F982958695869583
:100C50008370880F997F892B877F80930E01109274
:100C60003C02DF91CF911F910F91FF90EF90DF90A9
:100C7000CF90BF90AF90089580E191E00895FC017E
:100C800067830895F7D908950296F4D90895EF92ED
:100C9000FF920F931F93CF93DF93EC01F42E122F4B
:100CA0000896E8D9FA861B870C87ED86DF91CF91ED
:100CB0001F910F91FF90EF9008950496DBD908954E
:100CC000FC0166830895CF93DF93CEE6D2E0982FA0
:100CD00096959695966098838295880F880F807C6C
:100CE000898327E043E0BE01CE0117D089818F7050
:100CF00090E0982F88272A81822BDF91CF91089549
:100D000081E58CBD0895FC0180818EBD0DB407FE88
:100D1000FDCF8EB5FB0180830895CF92DF92EF92D5
:100D2000FF920F931F93CF93DF93EC018B0185B15B
:100D300061E070E06B0102C0CC0CDD1C2A95E2F78B
:100D40009C2D9095892385B9442389F04150E42E48
:100D5000F12C8FEFE81AF80AEC0EFD1EB801CE0157
:100D6000D2DF21960F5F1F4FEC16FD06B9F785B154
:100D7000C82AC5B8DF91CF911F910F91FF90EF90D6
:100D8000DF90CF900895FB01DC0102C001900D922D
:0C0D900041505040D8F70895F894FFCF70
:0A0D9C0042310301000200030000D1
:00000001FF
